{
  "contractName": "Votacion",
  "abi": [
    {
      "inputs": [
        {
          "internalType": "uint256",
          "name": "numCandidatos",
          "type": "uint256"
        }
      ],
      "payable": false,
      "stateMutability": "nonpayable",
      "type": "constructor"
    },
    {
      "constant": true,
      "inputs": [
        {
          "internalType": "address[]",
          "name": "v",
          "type": "address[]"
        },
        {
          "internalType": "address",
          "name": "e",
          "type": "address"
        }
      ],
      "name": "ind",
      "outputs": [
        {
          "internalType": "bool",
          "name": "",
          "type": "bool"
        }
      ],
      "payable": false,
      "stateMutability": "pure",
      "type": "function"
    },
    {
      "constant": false,
      "inputs": [
        {
          "internalType": "uint256",
          "name": "candidato",
          "type": "uint256"
        }
      ],
      "name": "votar",
      "outputs": [
        {
          "internalType": "uint256",
          "name": "",
          "type": "uint256"
        }
      ],
      "payable": false,
      "stateMutability": "nonpayable",
      "type": "function"
    },
    {
      "constant": false,
      "inputs": [],
      "name": "abrir",
      "outputs": [],
      "payable": false,
      "stateMutability": "nonpayable",
      "type": "function"
    },
    {
      "constant": false,
      "inputs": [],
      "name": "cerrar",
      "outputs": [],
      "payable": false,
      "stateMutability": "nonpayable",
      "type": "function"
    },
    {
      "constant": true,
      "inputs": [],
      "name": "estado",
      "outputs": [
        {
          "internalType": "uint256",
          "name": "",
          "type": "uint256"
        }
      ],
      "payable": false,
      "stateMutability": "view",
      "type": "function"
    },
    {
      "constant": true,
      "inputs": [],
      "name": "revisar_voto",
      "outputs": [
        {
          "internalType": "uint256",
          "name": "",
          "type": "uint256"
        }
      ],
      "payable": false,
      "stateMutability": "view",
      "type": "function"
    },
    {
      "constant": true,
      "inputs": [],
      "name": "resultados",
      "outputs": [
        {
          "internalType": "uint256[]",
          "name": "",
          "type": "uint256[]"
        }
      ],
      "payable": false,
      "stateMutability": "view",
      "type": "function"
    }
  ],
  "bytecode": "0x608060405233600260016101000a81548173ffffffffffffffffffffffffffffffffffffffff021916908373ffffffffffffffffffffffffffffffffffffffff1602179055503480156200005257600080fd5b5060405162000c7f38038062000c7f833981810160405260208110156200007857600080fd5b810190808051906020019092919050505080604051908082528060200260200182016040528015620000b95781602001602082028038833980820191505090505b5060019080519060200190620000d19291906200018a565b506000600260006101000a81548160ff02191690831515021790555060008090505b81811015620001825760646040519080825280602002602001820160405280156200012d5781602001602082028038833980820191505090505b50600080838152602001908152602001600020908051906020019062000155929190620001dc565b506000600182815481106200016657fe5b90600052602060002001819055508080600101915050620000f3565b5050620002d9565b828054828255906000526020600020908101928215620001c9579160200282015b82811115620001c8578251825591602001919060010190620001ab565b5b509050620001d891906200026b565b5090565b82805482825590600052602060002090810192821562000258579160200282015b82811115620002575782518260006101000a81548173ffffffffffffffffffffffffffffffffffffffff021916908373ffffffffffffffffffffffffffffffffffffffff16021790555091602001919060010190620001fd565b5b50905062000267919062000293565b5090565b6200029091905b808211156200028c57600081600090555060010162000272565b5090565b90565b620002d691905b80821115620002d257600081816101000a81549073ffffffffffffffffffffffffffffffffffffffff0219169055506001016200029a565b5090565b90565b61099680620002e96000396000f3fe608060405234801561001057600080fd5b506004361061007d5760003560e01c8063688e34671161005b578063688e3467146101415780638ab724c41461015f578063dab6ff2814610169578063eb626184146101735761007d565b8063216068311461008257806351dc516b146100c457806358568d1214610123575b600080fd5b6100ae6004803603602081101561009857600080fd5b8101908080359060200190929190505050610263565b6040518082815260200191505060405180910390f35b6100cc6104c4565b6040518080602001828103825283818151815260200191508051906020019060200280838360005b8381101561010f5780820151818401526020810190506100f4565b505050509050019250505060405180910390f35b61012b6105da565b6040518082815260200191505060405180910390f35b6101496106cc565b6040518082815260200191505060405180910390f35b6101676106f9565b005b6101716107d9565b005b6102496004803603604081101561018957600080fd5b81019080803590602001906401000000008111156101a657600080fd5b8201836020820111156101b857600080fd5b803590602001918460208302840111640100000000831117156101da57600080fd5b919080806020026020016040519081016040528093929190818152602001838360200280828437600081840152601f19601f820116905080830192505050505050509192919290803573ffffffffffffffffffffffffffffffffffffffff1690602001909291905050506108b9565b604051808215151515815260200191505060405180910390f35b6000806000905060008090505b60018054905081108015610282575081155b156103365761032760008083815260200190815260200160002080548060200260200160405190810160405280929190818152602001828054801561031c57602002820191906000526020600020905b8160009054906101000a900473ffffffffffffffffffffffffffffffffffffffff1673ffffffffffffffffffffffffffffffffffffffff16815260200190600101908083116102d2575b5050505050336108b9565b91508080600101915050610270565b5080156103ab576040517f08c379a00000000000000000000000000000000000000000000000000000000081526004018080602001828103825260208152602001807f596120686120656a65726369646f207375206465726563686f206120766f746f81525060200191505060405180910390fd5b600260009054906101000a900460ff16610410576040517f08c379a000000000000000000000000000000000000000000000000000000000815260040180806020018281038252602c815260200180610936602c913960400191505060405180910390fd5b6000808481526020019081526020016000203390806001815401808255809150509060018203906000526020600020016000909192909190916101000a81548173ffffffffffffffffffffffffffffffffffffffff021916908373ffffffffffffffffffffffffffffffffffffffff16021790555050600180848154811061049457fe5b906000526020600020015401600184815481106104ad57fe5b906000526020600020018190555082915050919050565b6060600260009054906101000a900460ff1615610549576040517f08c379a00000000000000000000000000000000000000000000000000000000081526004018080602001828103825260208152602001807f4c6120766f74616369c3b36e206e6f206861207465726d696e61646f2061756e81525060200191505060405180910390fd5b606060018054905060405190808252806020026020018201604052801561057f5781602001602082028038833980820191505090505b50905060008090505b6001805490508110156105d257600181815481106105a257fe5b90600052602060002001548282815181106105b957fe5b6020026020010181815250508080600101915050610588565b508091505090565b60008060009050600080905060008090505b600180549050811080156105fe575082155b156106c3576106a360008083815260200190815260200160002080548060200260200160405190810160405280929190818152602001828054801561069857602002820191906000526020600020905b8160009054906101000a900473ffffffffffffffffffffffffffffffffffffffff1673ffffffffffffffffffffffffffffffffffffffff168152602001906001019080831161064e575b5050505050336108b9565b92506001151583151514156106b6578091505b80806001019150506105ec565b50809250505090565b600080600260009054906101000a900460ff16156106ed57600190506106f2565b600090505b8091505090565b600260019054906101000a900473ffffffffffffffffffffffffffffffffffffffff1673ffffffffffffffffffffffffffffffffffffffff163373ffffffffffffffffffffffffffffffffffffffff16146107bc576040517f08c379a00000000000000000000000000000000000000000000000000000000081526004018080602001828103825260108152602001807f5065726d69736f2064656e656761646f0000000000000000000000000000000081525060200191505060405180910390fd5b6001600260006101000a81548160ff021916908315150217905550565b600260019054906101000a900473ffffffffffffffffffffffffffffffffffffffff1673ffffffffffffffffffffffffffffffffffffffff163373ffffffffffffffffffffffffffffffffffffffff161461089c576040517f08c379a00000000000000000000000000000000000000000000000000000000081526004018080602001828103825260108152602001807f5065726d69736f2064656e656761646f0000000000000000000000000000000081525060200191505060405180910390fd5b6000600260006101000a81548160ff021916908315150217905550565b6000806000905060008090505b8451811080156108d4575081155b1561092a578373ffffffffffffffffffffffffffffffffffffffff168582815181106108fc57fe5b602002602001015173ffffffffffffffffffffffffffffffffffffffff1614915080806001019150506108c6565b50809150509291505056fe4c6120766f74616369c3b36e206e6f20657320616363657369626c6520656e2065737465206d6f6d656e746fa265627a7a723158207dfc900331161ca9d55a0a25c7933a59c61af870779d9e13bf08aff509201ee964736f6c634300050c0032",
  "source": "pragma solidity ^0.5.7;\n\ncontract Votacion{\n    mapping(uint => address[]) private votosCandidatos;\n    uint[] private votos;\n    bool private abierta;\n\n    address private creador=msg.sender;\n\n    constructor(uint numCandidatos) public{\n        votos = new uint[](numCandidatos);\n        abierta = false;\n        for (uint i = 0; i < numCandidatos; i++)\n        {\n            votosCandidatos[i] = new address[](100);\n            votos[i] = 0;\n        }\n    }\n\n    function ind(address[] memory v, address e) public pure returns (bool){\n        bool found = false;\n\n        for(uint i = 0; i < v.length && !found; i++)\n        {\n            found = v[i] == e;\n        }\n\n        return found;\n    }\n\n    function votar(uint candidato) public returns(uint){\n        bool ya_votado = false;\n\n        for (uint i = 0; i < votos.length && !ya_votado; i++)\n        {\n            ya_votado = ind(votosCandidatos[i],msg.sender);\n        }\n\n        if (ya_votado) revert(\"Ya ha ejercido su derecho a voto\");\n        if(!abierta) revert(\"La votación no es accesible en este momento\");\n        \n        votosCandidatos[candidato].push(msg.sender);\n        votos[candidato] = votos[candidato] + 1;\n\n        return candidato;\n    }\n\n    function abrir() public{\n        if(msg.sender != creador)revert (\"Permiso denegado\");\n        abierta = true;\n    }\n\n    function cerrar() public{\n        if(msg.sender != creador)revert (\"Permiso denegado\");\n        abierta = false;\n    }\n\n    function estado() public view returns(uint)\n    {\n        //if(msg.sender != creador)revert (\"Permiso denegado\");\n\n        uint res;\n\n        if(abierta)\n            res = 1;\n        else\n            res = 0;\n\n        return res;\n    }\n\n    function revisar_voto() public view returns (uint)\n    {\n        //if(abierta) revert(\"La votación no ha terminado aun\");\n        bool ya_votado = false;\n        uint res = 0;\n\n        for (uint i = 0; i < votos.length && !ya_votado; i++)\n        {\n            ya_votado = ind(votosCandidatos[i],msg.sender);\n            if(ya_votado==true) res = i;\n        }\n\n        return res;\n    }\n\n    function resultados() public view returns (uint[] memory){\n        if(abierta) revert(\"La votación no ha terminado aun\");\n        uint[] memory resul = new uint[](votos.length);\n\n        for (uint i = 0; i < votos.length; i++)\n        {\n            resul[i] = votos[i];\n        }\n\n        return resul;\n    }\n}",
  "sourcePath": "/home/javi/Escritorio/3º/PINF/Blockchain/vottingDapp v1/contracts/Votacion.sol",
  "compiler": {
    "name": "solc",
    "version": "0.5.12+commit.7709ece9.Emscripten.clang"
  },
  "schemaVersion": "3.0.19",
  "updatedAt": "2019-12-14T13:05:27.725Z",
  "devdoc": {
    "methods": {}
  },
  "userdoc": {
    "methods": {}
  }
}